:020000040800F2
:1000000000800120952D0008E12D00088D0D0008CD
:10001000950D00089D0D0008A50D000800000000CA
:1000200000000000000000000000000081BC00088B
:10003000E12D0008000000003DBC00087DBB000869
:10004000E12D0008E12D0008E12D0008E12D000858
:10005000E12D0008E12D0008E12D0008E12D000848
:10006000E12D0008E12D0008E12D0008E12D000838
:10007000E12D0008E12D0008E12D0008E12D000828
:10008000E12D0008E12D0008E12D0008000000002E
:10009000000000000000000000000000E12D00084A
:1000A000E12D0008E12D0008E12D0008E12D0008F8
:1000B000E12D0008E12D0008E12D0008E12D0008E8
:1000C000E12D0008E12D0008E12D0008E12D0008D8
:1000D000E12D0008E12D0008E12D000800000000DE
:1000E000E12D0008E12D0008E12D000800000000CE
:1000F000000000000000000000000000E12D0008EA
:1001000000000000E12D0008E12D0008E12D0008AD
:1001100000000000000000000000000000000000DF
:10012000E12D0008E12D0008E12D0008E12D000877
:10013000E12D0008000000000000000000000000A9
:10014000000000000000000000000000E12D000899
:10015000E12D0008E12D0008E12D0008E12D000847
:10016000E12D0008E12D0008000000000000000063
:10017000000000000000000000000000000000007F
:1001800000000000E12D0008000000000000000059
:10019000E12D00080348044B834202D0034B03B116
:1001A000184770472807002028070020000000009B
:1001B0000548064B1B1AD90F01EBA301491002D0C9
:1001C000034B03B118477047280700202807002079
:1001D0000000000010B5064C237843B9FFF7DAFFA2
:1001E000044B13B10448AFF300800123237010BD0A
:1001F00028070020000000004CF4000808B5054B5B
:100200001BB105490548AFF30080BDE80840FFF782
:10021000CFBF00BF000000002C0700204CF40008F6
:10022000A3F5803A704700BF174B002B08BF134B54
:100230009D46FFF7F5FF00218B460F461348144AF1
:10024000121A0DF025FF0E4B002B00D098470D4BD6
:10025000002B00D098470020002104000D000D481D
:10026000002802D00C48AFF300800DF097FF20006B
:10027000290004F07DFD0CF043FF00BF00000800E2
:1002800000000000E51F0008008001202807002072
:10029000B82900200000000000000000704710B5E1
:1002A0005021044601F09AFD204610BD37B50546A1
:1002B000044655F8043B9B689847284600F0A0FC8C
:1002C00023688DED010ADB68204698479DED010A01
:1002D00003B030BD0346006818B9186808B9181D86
:1002E0001860704708B50248FFF7F4FF08BD00BF6B
:1002F0004407002008B50248FFF7ECFF08BD00BF27
:100300004407002073B50546094B0A4E45F8043BE7
:10031000044630460191FFF7DDFF0199284600F0C1
:100320007DFC3046FFF7D6FF204602B070BD00BF0F
:1003300018E8000844070020024B1B6803B1184767
:10034000704700BF4C070020C36810B504460BB1CE
:100350009B689847204610BD007B704738B50B4B13
:1003600003600023C0E9013104460D4602730848CA
:10037000FFF7B0FF45B1074B1A6862601C60044884
:10038000FFF7A8FF204638BD6560F8E738E80008A9
:10039000540700205007002010B5124B036004469C
:1003A0001148FFF797FFA3682BB1104962680B68EB
:1003B000A34210D10A600E4B0B481A68A24204BF38
:1003C00000221A60FFF786FF237B13B9201F01F07C
:1003D00009FD204610BD19465B68A342FBD14A6067
:1003E000E9E700BF38E80008540700205007002064
:1003F0005C07002010B50446FFF7CEFF2046102111
:1004000001F0ECFC204610BDF8B5064614480D4638
:10041000FFF760FF134B1C6894B1A76877B13846AB
:100420000DF04CFFA84209D12A46314638460DF05E
:1004300005FE18B90A48FFF74DFF0FE06468EBE7C7
:10044000072DF7D108482A4631460DF0F7FD002860
:10045000F0D10348FFF73EFF044B1C682046F8BD6F
:10046000540700205007002028E800085C070020FF
:100470000020704700207047036801221B6900219B
:100480001847036800221B69114618476FF01500D2
:10049000704703681B69184703689B69184703681E
:1004A0009B6A184700290CBF6FF0180000207047A6
:1004B000012070476FF0150070476FF0150070470E
:1004C000112070477047036870B51B690122002135
:1004D00004469847051E0DDB236802221B69002194
:1004E000204698472368064629461B690022204675
:1004F00098473546284670BD70B50D460026C0E9C0
:1005000000660C49044628460DF0CAFD28442060C8
:10051000314623681A782F2A06D101332360FFF76A
:1005200073FF6060204670BD002AF8D001330131AE
:100530002360EEE79CE8000800687047406808B553
:1005400020B1FFF709FF431E5842584108BD10B5BE
:100550000446FFF7F3FF10B1606800B1043810BD26
:10056000406808B520B1FFF7F7FEB0FA80F0400907
:1005700008BD10B50446FFF7F3FF10B1606800B185
:10058000043810BD4068003818BF01207047C368A8
:1005900010B504460BB19B689847204610BD036810
:1005A00018470B6803607047704700000346024A13
:1005B000203000F0E3BD00BFE706000870B5054637
:1005C000124B45F8043B04460E461C2200212846E7
:1005D0000DF05EFD1022002104F120000DF058FD09
:1005E0001022002104F130000DF052FD10220021F4
:1005F00004F140000DF04CFD31462046FFF7D6FFD8
:100600002846314601F011F9204670BDA8E80008DF
:1006100013B50446019100F06DFF0199201D00F013
:10062000C7FC02B0BDE8104000F06EBF10B5084B2B
:10063000044640F8203B00F073FE04F14000FFF751
:1006400083FE04F13000FFF77FFE204610BD00BF9F
:10065000A8E8000810B50446FFF7E8FF204650213F
:1006600001F0BCFB204610BD884238B504460D465B
:100670000ED0FFF769FE1022002120460DF008FD84
:10068000EB681BB15B68294620469847EB68E3603E
:10069000204638BDF0B50D4685B0044600F02AFF6F
:1006A000EE6804F13007203466B129463846FFF77A
:1006B000DBFF01220121204600F0F0FC00F024FFC6
:1006C00005B0F0BD1022314668460DF0E1FC6946E8
:1006D0003846FFF7C9FF6846FFF736FE3246E9E7BE
:1006E000C3681B681847012908B502D0022907D042
:1006F00008BDC36B002BFBD03030FFF7F1FFF7E7ED
:10070000C36C002BF4D04030F7E7000010B504466E
:1007100021B910220DF0BCFC204610BD0022034B75
:10072000426082600160C360F6E700BFB0E8000885
:1007300007B5002303760191009000F0DBFEDDE9B0
:10074000000102F085F800F0DFFE009803B05DF8CC
:1007500004FB07B501908DED000A00F0CBFE9DED86
:10076000000A019802F026F903B05DF804EB00F0EE
:10077000CBBE037E10B504461BB901F0F7F8012388
:10078000237610BD07B58DED010A009000F0B2FE92
:100790000098FFF7EEFF9DED010A009801F038FF89
:1007A00003B05DF804EB00F0AFBE037E10B5044665
:1007B0001BB101F0EFF80023237610BD07B50190BF
:1007C00000F098FE019801F01DFF0198FFF7EDFF82
:1007D00000F09AFE019803B05DF804FB704700F04A
:1007E0008DB8A0F1B400FFF7FABF00F08AB8A0F10D
:1007F000B400FFF7FABF00000A4B10B503F108027E
:10080000026003F1280294330446C0F8B420C0F813
:10081000B830B43000F0C4F9204600F01DF920468D
:1008200010BD00BFBCEB0008A0F1B400E4E7A0F1EC
:10083000B800E1E710B50446FFF7DEFF2046D021FF
:1008400001F0CCFA204610BDA0F1B400F2E7A0F10F
:10085000B800EFE77047704738B504461D46049B63
:1008600000F056F8294604F1B40000F071F9064B87
:1008700003F10802226003F128029433C4F8B42083
:10088000C4F8B830204638BDBCEB0008704701F111
:10089000090300EB0313DA6832B100EB01111846CB
:1008A000D1F89C20126810477047416830B4034665
:1008B00071B1D0E9032000F0010402B944B1451040
:1008C00001EB60000CB149598A58996830BC104757
:1008D00030BC704770B50646044656F8443B0D469A
:1008E0001B6898473046294602F0BCF82368C4F8D4
:1008F000B05020465B68BDE870401847443002F0B5
:1009000025BA10B544300C4602F032FA204610BD2C
:100910002DE9F04F87B0002501932F4B036010267F
:100920002E4B43600446C0E90355C0E9055588468F
:100930009146858332462946806020300DF0A8FB21
:1009400004F144073246294604F130000DF0A0FBC3
:1009500004F1900A2946A4F840504C2238460DF084
:1009600097FB04F1A00B3246294650460DF090FB50
:100970003246294658460DF08BFB019BC4F8B03037
:100980003246294602A80DF083FB02A95046FFF724
:100990006BFE02A8FFF7D8FC3246294602A80DF0EC
:1009A00077FB02A95846FFF75FFE02A8FFF7CCFCD1
:1009B0004A464146384602F06FF8D4F8B01038463F
:1009C00002F050F838460649224602F063F9204604
:1009D00007B0BDE8F08F00BF60EC0008AB0800086E
:1009E0008F0800082DE9FF41036815460F460446AD
:1009F0001B6805F10906984704EB061600F07AFD1E
:100A0000FA68F36804F14408A2B10BB900F0AEFF34
:100A100039463046FFF728FE01222946404602F0BB
:100A200045F900F071FD236820465B68984704B0E3
:100A3000BDE8F0810BB100F0ADFF10220021684647
:100A40000DF026FB69463046FFF70EFE6846FFF7BD
:100A50007BFC0022E1E700001FB51A4B036004464F
:100A60001022002168460DF013FB00226946204643
:100A7000FFF7B8FF6846FFF767FC102200216846C1
:100A80000DF006FB012269462046FFF7ABFF6846E2
:100A9000FFF75AFC04F1A000FFF756FC04F19000A8
:100AA000FFF752FC04F13000FFF771FD04F1200064
:100AB000FFF76DFDA06908B1FFF73EFC204604B0CA
:100AC00010BD00BF60EC000810B50446FFF7C4FF7E
:100AD0002046B42101F082F9204610BD70477047CE
:100AE00000207047F8B50368DB6D0D4604468F188B
:100AF00098472E46BE42236806D05B6D16F8011B50
:100B0000204698470130F5D1236820461B6E984750
:100B1000701BF8BDF8B50368DB6D0D4604468F18F1
:100B200098472E46BE42236807D09B6D20469847C3
:100B3000431C02D006F8010BF4E7236820461B6E25
:100B40009847701BF8BD0020704700207047704721
:100B50000F4B13B50022044640F8043BFFF7FEFBA1
:100B60000C4B23606C336360002363610A492046A9
:100B700001F080F90346606128B900900246014601
:100B8000064800F05BFD00F09FFF204602B010BD5C
:100B900048E80008E8EC000870EC00081901018042
:100BA0000A4B03F10802743310B504460260436037
:100BB00040690CF045FD064B236020465C3340F84D
:100BC000043FFFF7E9FB204610BD00BFE0EC000842
:100BD0007CEC000838B503680446DB6D0D46984789
:100BE0000122606900210CF065FF616928460CF064
:100BF00057FF236805461B6E20469847284638BD98
:100C000008B500F063F807EE900AB8EE670ADFED6A
:100C1000027A20EE270A08BD01088039A1F1F0030D
:100C20009BB20F2B73B504460D4638D9224928468E
:100C300000F068FE20492060284600F083FE1E492F
:100C40000646284600F01AFE01222168E2611B4A8E
:100C5000A4F848500023C6F384369142C4E9013316
:100C6000C4E90833C4E90A3384F84A602364236181
:100C7000A361E360236363610AD10193104B5A6C53
:100C800042F480725A645B6C03F480730193019B9D
:100C9000204602F0D7F868B10A4800F0BBFC0A49C8
:100CA000284600F02FFE08492060284600F04AFE42
:100CB0000646C9E702B070BDBCE80008002001404C
:100CC000003802405CED000870E9000830B585B0DE
:100CD00090F84A1001230022CDE901330446039223
:100CE00012294FD8DFE801F00A2726292B2D2F31B2
:100CF000333537393B3D3F4143484A000092224D4E
:100D00006B6823F4400369466B60204602F0F2F9F9
:100D1000204602F03BF90A21204602F097F978BB01
:100D2000204602F0E3F980B26B6823F440036B6065
:100D300005B030BD02230093E1E70323FBE7042362
:100D4000F9E70523F7E70623F5E70723F3E7082389
:100D5000F1E70923EFE70A23EDE70B23EBE70C2389
:100D6000E9E70D23E7E70E23E5E70F23E3E7102389
:100D7000009307230293C2E71123F9E71223F7E751
:100D80000020D1E70020D3E7002301404FF01003FB
:100D900000F00CB84FF0200300F008B84FF030031B
:100DA00000F004B84FF0400300F000B8EFF3088003
:100DB0004FF0040172460A4201D0EFF309809C46CD
:100DC000254B196802680A60043142680A600431E0
:100DD00082680A600431C2680A600431F0C1474683
:100DE0000F6004314F460F60043157460F600431E5
:100DF0005F460F60043102690A60083142690A6087
:100E0000043182690A600431C2690A600431034610
:100E100020334FF40076324200D0043375464FF051
:100E20001006354200D148330C46103C2360EFF3E6
:100E300009820A600431EFF308820A6004317246C5
:100E40000A600431EFF314820A606046024B1968AD
:100E500000F07CFCFEE7000068F0000830B591FA75
:100E6000A1F391FAA1F1B3FA83F304685B000325BF
:100E7000B1FA81F105FA03F3490024EA03038A4039
:100E80001343036030BD00007FB52B4B00220728C1
:100E90004FD8DFE800F004121E2A364E4E42009270
:100EA0001A6B264842F001021A631B6B03F0010320
:100EB0000093009B07B05DF804FB01921A6B204879
:100EC00042F002021A631B6B03F002030193019BC1
:100ED000F0E702921A6B1B4842F004021A631B6B84
:100EE00003F004030293029BE4E703921A6B164893
:100EF00042F008021A631B6B03F008030393039B81
:100F0000D8E704921A6B114842F010021A631B6B67
:100F100003F010030493049BCCE705921A6B0C4872
:100F200042F080021A631B6B03F080030593059B5C
:100F3000C0E7084800F06EFB0038024000000240A5
:100F40000004024000080240000C02400010024071
:100F5000001C024072ED000810B54FF47071044699
:100F600004F00F0401F07CFA0120A04010BD000045
:100F70004B1C70B504460E46018216D0C1F3031017
:100F8000FFF782FF05463046FFF7E6FF238A074A50
:100F9000656103F00F03206052F82330A36105F16F
:100FA00010031835C4E90255636070BD0CF10008E8
:100FB000B0F9100001F0D0BA0A46D0E905010AB92B
:100FC000FFF74CBF0122FBE7224B4C222DE9F041F9
:100FD00002FB0032204D002494460127DCF800601B
:100FE00007FA04F333422BD0536B6E6907FA03F30D
:100FF0001E4225D0D2F81CE06B61566806B3EA6841
:1010000033EA020203D1AA6833EA020214D1124A77
:10101000916833EA010103D1D26833EA02020DD1AB
:10102000DEF810201A4214BF012102210B4B30467A
:101030001B68BDE8F04118470221F7E70121F5E7F9
:101040000134A14202F10402C8D10146044800F073
:10105000E1FA00BF60070020003C01407409002055
:1010600093ED000806210846FFF7AEBF05210846AC
:10107000FFF7AABF01210420FFF7A6BF012103202B
:10108000FFF7A2BF01210220FFF79EBF0121084602
:10109000FFF79ABF01210020FFF796BF012910B585
:1010A00014D18389154C03F00F039940836832B142
:1010B000A2681143A16043F00103836010BDA268E0
:1010C00022EA0101A16023F00103F6E70229F5D12C
:1010D00081890A4C01F00F030121994083682AB1EC
:1010E000E2681143E16043F00203E6E7E26822EAC6
:1010F0000101E16023F00203DFE700BF003C014093
:101100008389B0F90C1070B503F00C0404F180442D
:1011100004F59C3403F00F0603F00303A5689B005D
:101120000F229A40C1F3031125EA020501FA03F3E5
:101130002B43A3600F4B01221968B2401143196081
:101140008468E50742BF996811439960A10742BFCF
:10115000D9680A43DA6090F90030002B08DB0122DD
:10116000590903F01F0302FA03F3034A42F821303E
:1011700070BD00BF003C014000E100E02DE9F74FE9
:101180009B464B1C06460C46904662D000230193BA
:10119000314B5A6C42F480425A645B6C03F48043D6
:1011A0000193019B2D4B01F00F090C2202FB093228
:1011B000C1F303105568062D48D8DFE805F0043B5D
:1011C0003D3F41434500264FFFF75EFE234BB48170
:1011D0000C2202FB09F299189C5891F908C0214988
:1011E00086F800C04C236B43012202FA04FECA5861
:1011F00075604FF0000A42EA0E02C6F808A0CA5015
:10120000132303FB054501EB85030CF1100CD8619A
:10121000C3F804B0C3F83490134BC3F80080134BE9
:101220009B68304643F82C70FFF76AFF504603B0C6
:10123000BDE8F08F0E4FC7E70E4FC5E70E4FC3E76F
:101240000E4FC1E70E4FBFE70E4FBDE70E4800F04F
:10125000E1F90846EBE700BF00380240E4ED000882
:1012600095100008600700207409002000ED00E0E0
:101270008D100008851000087D100008751000080A
:101280006D10000865100008BCED000883890C2271
:1012900003F00F0370B55A431D4CA518A4581D4AFE
:1012A0006E689568012101FA03F325EA030595604C
:1012B000D56825EA0305D560156825EA03031360A0
:1012C0004C23154A734301FA04F4D358A3431ED1A7
:1012D00090F90030002B0CDB5A0903F01F039940F2
:1012E00002F120030D4A42F82310BFF34F8FBFF3E2
:1012F0006F8F90F90030002B09DB5A09012103F0B0
:101300001F0301FA03F36032044941F8223070BD33
:10131000E4ED0008003C01406007002000E100E02F
:101320008389124A03F00F010C234B43104970B418
:10133000CE5843684C215943012404FA06F5545809
:1013400024EA05045450132101FB036302EB8304D8
:10135000002161609C1D0C3302EB840402EB8303CB
:101360006160596070BCFFF791BF00BF600700204B
:10137000E4ED000808B502F00DFE002008BD0000F5
:1013800008B50A4B1B684BB101F020F801F00CF8CE
:101390004FF47A7200230BF035FD08BD044B586AF8
:1013A0004FF47A73B0FBF3F0F7E700BFF8090020C1
:1013B000000C004003460122D3E84F0FC3E8412F41
:1013C000C0B20029F8D17047D0E85F3F5B18C0E891
:1013D000523F002AF8D198B27047D0E85F3F5B1ABD
:1013E000C0E8523F002AF8D198B27047D0E84F3F8A
:1013F000C0E8421FD8B2704700B589B000F07AF853
:10140000052101A800F026FA114E124D0424039B79
:10141000019A1A60304600F0E7FF019B049A1B0412
:101420001360304600F0E0FF013CF0D10424039B40
:10143000019A1A60284600F0D7FF019B049A1B040A
:101440001360284600F0D0FF013CF0D1DEE700BF7A
:10145000F0490200801A060007B5014600220190FB
:10146000022000F0B7FB00F045F8019908460CF0A7
:1014700025FF01990246022000F0ACFB03B05DF8A5
:1014800004EB00F041B8000000B5A3B002460B46E3
:1014900001A884210CF08EFC832806D9074B1A681A
:1014A0001B79CDF883208DF88730002802DD01A854
:1014B000FFF7D2FF23B05DF804FB00BFA4EE0008E5
:1014C0000FB407B504A951F8040B0191FFF7DCFF35
:1014D00003B05DF804EB04B07047EFF31080C04335
:1014E00000F001007047EFF30580003818BF0120BD
:1014F0007047000008B500F013F8024A1368013382
:10150000136008BD78090020044A136823B1013B29
:1015100013600BB900F016B8704700BF78090020BF
:10152000EFF3108372B6054A117831B90449DB43F1
:1015300003F001030B700123137070477D09002035
:101540007C090020034B00221A70034B1B7803B167
:1015500062B670477D0900207C09002008B50B4861
:10156000FFF728FF28B1FFF7C5FFBFF34F8F20BF5C
:10157000FDE7FFF7B8FF08B1FFF73EFFFFF7ADFF4C
:101580000028F9D001200BF0BBFD00BFC0090020EE
:1015900070B51B4C8EB034EA200428BF04460D46BB
:1015A00016460021282204A80CF072FDCDE9014660
:1015B0000395FFF79FFF134A13680133012B136054
:1015C00009D101AD0FCD104C0FC40FCD0FC40FCDFD
:1015D0000FC42B68236001AC0FCC0C4D0FC50FCC92
:1015E0000FC50FCC0FC523682B60094B1B6813B1C7
:1015F000A5F130009847FFF787FF00200EB070BDBF
:101600000101FF80800900208C090020C40900200E
:10161000840900200FB407B501210648CDF804E085
:10162000FFF7E4FE019A014610B90348FFF7B0FF47
:10163000FFF794FF880900200001FF8008B50446E9
:101640000121064876461546FFF7D0FE20B93246FE
:1016500029462046FFF79CFFFFF780FF88090020FE
:10166000F0B52C4E2C4F85B000243546214656F857
:10167000042B38460134FFF723FF0D2CF6D1AB6C59
:1016800002936B6C01932B6C244C0093D5E90E23D1
:10169000696B2348FFF714FF21682248FFF710FF0A
:1016A000E16AA26AA36AA06A266BE76B000CCDE927
:1016B00001670090C3F307231B48D2B2FFF700FF76
:1016C000A36A1E0603D5616B1848FFF7F9FEA36AEB
:1016D000180403D5A16B1648FFF7F2FEEB6C19074F
:1016E00012D51448FFF7ECFE2B6DDA070FD5124820
:1016F000FFF7E6FEEB6C5B074CBF1048104805B0E7
:10170000BDE8F040FFF7DCBE0E48FFF7D9FE0E48FB
:10171000EEE700BF0C280020A9EE000800ED00E075
:10172000B7EE000806EF000814EF000863EF0008AA
:1017300071EF00087FEF00088EEF0008BEEF000891
:10174000CAEF0008AEEF00089BEF000813B504468F
:101750001548FFF7B5FE302C17D0402C1AD0202C9E
:101760001DD11248124CFFF7ABFE1248FFF7A8FE3E
:10177000FFF776FF1048FFF7A3FE104A1049002339
:101780000093D26B2046FFF759FF0E480E4CFFF72F
:1017900097FEEAE70D480E4CFFF792FEE5E70D488D
:1017A0000D4CFFF78DFEE0E7D6EF0008FFEF0008D5
:1017B0003E01FF802CF0000837F000080C280020C4
:1017C00056F000080EF000083F01FF8017F00008F7
:1017D0004001FF8022F000083D01FF8070B50E46F9
:1017E00004461546FFF7C4FB013609D02046002108
:1017F000FFF7E2FB29462046BDE87040FFF7D8BB63
:1018000070BD38B5036804460D465AB1826813604E
:1018100020460121FFF7D0FB29462046BDE838408D
:10182000FFF7C6BBC2681B04F1E70022FFF7D6BF73
:1018300037B50D4604460192FFF79AFB013507D0F4
:10184000019A0021204603B0BDE83040FFF7D9BF20
:1018500003B030BD0022FFF7EBBF000008B502F077
:1018600047FB01F0BFFA02F035FB02F041FB024BEF
:1018700001221A6008BD00BFF80900201FB5431CF3
:1018800010D105B05DF804FB83420AD1896803904A
:1018900000F0E6FD0398002105B05DF804EB00F0D0
:1018A0005BBE0C31B1F900305A1CEDD10023024669
:1018B000009302481946FFF7C1FE00BF30010180C6
:1018C000884207B502460AD0431C08D0013105D032
:1018D0000023054800931946FFF7B0FE014608466D
:1018E00003B05DF804FB00BF30010180B1F90030A6
:1018F0005A1C01D118467047834201D1486870478D
:101900000C31F3E7421C13B504460AD0FFF7EEFF93
:10191000431C06D100230448009322461946FFF7D2
:101920008DFE02B010BD00BF30010180B1F9003062
:101930005A1C01D118467047834201D1886870470C
:101940000C31F3E7421C13B504460AD0FFF7EEFF53
:10195000431C06D100230448009322461946FFF792
:101960006DFE02B010BD00BF3001018013B5074C01
:1019700001212046FFF728FD034628B900900146C3
:1019800022880348FFF75AFE02B010BDFC09002070
:101990002301048013B5094C01212046FFF71DFDEA
:1019A0004FF6FF73984206D1002322880448009323
:1019B0001946FFF743FE02B010BD00BFFC0900202E
:1019C000240104806FF01C0070476FF01500704711
:1019D000012070470020704770470000F8B5074E9F
:1019E00015460C468F18BC4205D014F8011B304632
:1019F00001F0BEF9F7E72846F8BD00BF60280020D7
:101A000038B511F001048DB205D0084800F0DEFFB2
:101A1000041E18BF0124EB0605D5044800F0ECFFB6
:101A200008B144F01004204638BD00BF60280020F3
:101A300010B504460BF07EFB204610BD10B50C46D9
:101A40002AB1044801F082F92070012010BD10462F
:101A5000FCE700BF6028002038B51D46074B036037
:101A6000074B1B68044633B9064801F015F80548D2
:101A7000294600F0F7FF204638BD00BF74F000088B
:101A80008C0A00206028002000207047002070474A
:101A900008B501200BF034FB074A084913681844C5
:101AA000884289BF064B10600C224FF0FF308CBF7C
:101AB0001A601846704700BF9C020020007C01207D
:101AC000042800200120704700210CF04FB8704717
:101AD000704708B5FFF7FBFF08BD08B5FFF7F8FF33
:101AE00008BD037803F00303012B09D0037803F04A
:101AF0000302012A04D043F002030370012070475F
:101B000000207047037823F0030343F001030370C0
:101B1000704700003F2870B504462FDC184D55F87B
:101B200020305A1C13D1022811DCFFF7AFFF034607
:101B300058B92046FFF7A8FF034630B9114E337855
:101B4000BFF35B8FDB0704D50F4B45F824301846F5
:101B500070BD3046FFF7C5FF0028F5D04FF416538F
:101B6000032202210848FFF777FF3046FFF7CAFF3C
:101B7000064A07490448FFF7A5FFE5E70023E6E723
:101B80009C010020000A00200C0A0020980100207F
:101B9000D919000838B50546FFF7BCFF0B4B0024E8
:101BA00043F8254030B90CF0F3FA092303604FF0F5
:101BB000FF3038BD03685B699847051E04DA0CF0F6
:101BC000E7FA6D420560F2E72046F2E79C0100204B
:101BD000FFF7E0BF13B5CDE90021FFF79BFFDDE97B
:101BE000002140B90CF0D4FA092303604FF0FF3410
:101BF000204602B010BD0368DB689847041EF7DA80
:101C00000CF0C6FA64420460F0E708B5131E07DA68
:101C10000CF0BEFA162303604FF0FF33184608BDE0
:101C2000FCD0FFF7D7FF40EAE073F7E713B5CDE943
:101C30000021FFF76FFFDDE9002140B90CF0A8FAA1
:101C4000092303604FF0FF34204602B010BD036843
:101C50009B689847041EF7DA0CF09AFA6442046015
:101C6000F0E7002A08B503DBBDE80840FFF7DEBF58
:101C70000CF08EFA162303604FF0FF3008BD10B54C
:101C8000FFF748FF044628B90CF082FA09230360E5
:101C9000204610BD0368DB699847041EF8DA0CF093
:101CA00077FA644204600024F2E737B54023CDF8A8
:101CB0000100054668468DF800300BF0C5FE04466D
:101CC00030B12846FFF7DBFF10B12046FFF7FCFEDE
:101CD000204603B030BDFFF7D2BF13B5CDE90021D8
:101CE000FFF718FFDDE9002140B90CF051FA092394
:101CF00003604FF0FF34204602B010BD03681B693B
:101D00009847041EF7DA0CF043FA64420460F0E7E7
:101D1000FFF7E3BF10B5FFF7FDFE30B90CF038FA5E
:101D2000092303604FF0FF3010BD03689B6998479B
:101D3000041E04DA0CF02CFA64420460F2E700207E
:101D4000F2E700000A4D08B52B68044698680BF0CE
:101D50002DFD2B68D8680BF029FD0120FFF7DAFF75
:101D60000220FFF7D7FF0CB1FFF746FBFEE700BFED
:101D70000807002038B50D46FFF7CCFE044630B901
:101D80000CF006FA092303604FF0FF3038BD0368FA
:101D9000DB699847002814BF4FF400534FF4004309
:101DA0006B60236820469B6A984728610020EDE716
:101DB000FFF7E0BF1FB503900BF0B4F9039A034699
:101DC00020B9009001460348FFF738FC05B05DF8E4
:101DD00004FB00BF1F010180FFF7ECBF0BF0AAB9A5
:101DE0000BF0A8B910B504460848FEF773FA084A84
:101DF0004023002152F8040BA04208BF42F8041C03
:101E0000013BF7D10148FEF765FA10BD040A002036
:101E10009C01002010B50F48FEF75CFA0E4B03241E
:101E200053F824206AB10134402CF9D10CF0B0F9F8
:101E3000182303600748FEF74DFA4FF0FF342046A1
:101E400010BD4FF0FF32034843F82420FEF742FA5A
:101E5000F5E700BF040A00209C01002010B50446ED
:101E6000FFF7D8FF0028A4BF014B43F8204010BD66
:101E70009C01002073B506460191FFF7EFFF051E98
:101E800013DB0199FFF711FF044630B9084B53F8F3
:101E90002520964204D143F82500204602B070BDAB
:101EA0000CF076F909230360F7E70024F5E700BF9B
:101EB0009C0100200EB42DE9F04187B00190FFF79E
:101EC000A9FF041E13DB00230199039304A8FEF766
:101ED00013FB04A8FEF756FB1B4E054668B90CF031
:101EE00057F91323036046F824504FF0FF3420467F
:101EF00007B0BDE8F04103B0704704A8FEF730FB1F
:101F0000074604A837B1FEF734FB0390039B46F85D
:101F10002430ECE7FEF71BFB05460028DFD0036802
:101F200004A8D3F80880FEF707FB0D9B024603A91F
:101F30002846C04705460028E8D00CF029F96D4234
:101F4000056046F82470D0E79C01002070B50E466D
:101F5000154905460CF04AF9044618B9FFF7DAFDB1
:101F6000204670BD114928460CF040F920B90120E7
:101F7000FFF7D0FD0124F3E70D4928460CF036F9B0
:101F800020B90220FFF7C6FD0224E9E72B78402B99
:101F900002D1D5F80140E3E726F400412846BDE828
:101FA0007040FFF787BF00BFD0F00008D7F00008EF
:101FB000C8F0000870470000084B094998684FF0C6
:101FC0000053C21802F16042126843F8042B8B429E
:101FD000F7D1024B4FF000529A60704700ED00E0DD
:101FE0009401002008B5FFF7E7FFFFF737FC02F088
:101FF00025F8FFF7DFFF08BD2DE9F74F446894F897
:102000003A100646002955D1016849688847716829
:10201000096A814205464DD0206AE168A6682562BA
:10202000281A0140384886428C464FF0000E39D0BD
:1020300094F83BB0D4E90A5A0027A1FB0001BBF198
:10204000000F46D0CBF1200801FA08F820FA0BFC6B
:10205000ABF1200E21FA0EFE4CEA080C4CEA0E0CF5
:102060002D1821FA0BFEABF120094AEB010ACBF146
:1020700020080EFA0BF10CFA09F941EA09012CFAD1
:1020800008F80CFA0BF02B1A41EA080100936AEBEE
:1020900001030193DDE90023BB4208BFB2420CD229
:1020A000C4E90A23D4E90C0110EB0C0041EB0E014A
:1020B000C4E90C0103B0BDE8F08F009B1CF1010CDA
:1020C0004EF1000E9A1B019B63EB0703C4E90A2340
:1020D000E8E732463B460AF095FE12EB050843EB73
:1020E0000A09B94508BFB04584468E4602D2C4E904
:1020F0000A89D7E710F1010C41F1000EB8EB060296
:1021000069EB0703E2E700BF40420F00824206D9B5
:102110008A420BD9884294BF002001207047884230
:1021200006D98A428CBF00200120704701207047E9
:10213000002070472DE9F74FD0F8048098F83A3026
:102140000746002B40F0818098F83930002B7CD175
:10215000FFF752FF7E683A6873680192002B66D0E1
:10216000D6E90C01D3E90023994208BF904205D378
:10217000019B5B6903B0BDE8F04F1847141A63EB8D
:102180000105D6E90623AB4208BFA242D6F810905B
:1021900006D3B2682E4B9A4219D1A14528BFA14659
:1021A000326A019B9144F2681B6909EA02021046F7
:1021B000019298473B685B689847019A0146D8F8B6
:1021C0002000FFF7A3FF00283FD03B68D1E796F837
:1021D0003B30EBB1A3F1200CC3F1200224FA02F250
:1021E00004FA03F005FA03F104FA0CFC194C41EA75
:1021F0000C0111430019164A4FF000044FF0000380
:1022000044EB01010AF0FEFD814528BF8146C7E786
:102210001048A2FB04AB02FB05BB1AEB00004FF019
:1022200000010B4A4FF000034BEB0101EAE7D8F83D
:102230001030D8F82000D8F80C201844019B1B69F6
:10224000104003B0BDE8F04F184703B0BDE8F08F71
:1022500040420F003F420F002DE9F04F436893F8D2
:10226000382085B00546002A63D193F83A30002B18
:102270005FD103681B6898472B68DB699847036840
:102280002BB92D4800931A461946FFF7D7F91F219D
:10229000012202FA01F4A3425FFA81FA02D0013965
:1022A000F7D18A464668321F1C2A05D900232348E5
:1022B00000931A461946E8E71C4614F1FF384FF020
:1022C00000031F494FF0070743F1FF399740C1FB57
:1022D00007892246404649460AF094FD6B682A6801
:1022E00003934FF00008C3E900885268894683468B
:1022F0009047039B0122186202FA06F66B680021E0
:102300000020013EC3E90A01C3E90C01C3E90367E8
:102310002846C3E906B99C6083F83BA01A8783F876
:102320003A80FFF769FE284605B0BDE8F04FFFF799
:1023300001BF05B0BDE8F08F0E01048005010480E7
:1023400040420F0070B50446FFF7D4F82368DB68FD
:102350009847636893F83A201AB1BDE87040FFF7D8
:10236000D3B8012283F8392063685B68A3B12046A3
:10237000FFF742FE65686E68D5E90C01D6E90023D7
:10238000994208BF904207D3F3686B602B68002B1B
:10239000EAD0B0689847E7E76368002283F83920FD
:1023A0002046FFF7C7FED8E738B50446FFF754FFCD
:1023B000FFF7A0F82046FFF71FFE6368D3E90C453E
:1023C000FFF7A2F82046294638BD704700487047FD
:1023D000E0F00008024B1B680BB102481847704739
:1023E000A0020020E0F00008034B596A5A6A521A12
:1023F0008242FBD3704700BF000C004030B591FA19
:10240000A1F391FAA1F1B3FA83F384685B00032589
:10241000B1FA81F105FA03F3490024EA03038A4083
:102420001343836030BD30B591FAA1F391FAA1F165
:10243000B3FA83F3C4685B000325B1FA81F105FAAE
:1024400003F3490024EA03038A401343C36030BD09
:10245000012A02D0022A18BF0022FFF7E4BF0000C1
:102460002DE9F84300F00F023A4B1FFA80F9C0F350
:10247000031053F82270C1F3831801F007060D46CC
:10248000FEF702FDB8F10F0F0CBF0322424639469A
:102490000446FFF7B3FF022E28D0032E58D0711E3A
:1024A0004B424B4197FAA7F2B2FA82F221685200EE
:1024B000032000FA02F221EA020197FAA7F2B2FA27
:1024C00082F252009340013E0B43012E236005D857
:1024D00063682A074CBF3B43BB436360C5F30112EB
:1024E00039462046BDE8F843FFF7B2BF19F0080FA0
:1024F000C5F3832217D03B0A93FAA3F1B1FA81F115
:10250000406A93FAA3F389004FF00F0CB3FA83F3F8
:102510000CFA01F19B0020EA010102FA03F30B43DC
:1025200063620223BEE797FAA7F1B1FA81F1036A69
:1025300089000F2000FA01F123EA010197FAA7F3BD
:10254000B3FA83F39B0002FA03F30B432362E8E739
:102550003346A7E70CF1000838B500F00F021F4B17
:10256000C0F3031053F822500C46FEF78DFC95FA89
:10257000A5F2B2FA82F35A0001680323934095FA58
:10258000A5F2B2FA82F20B405200D340013B012B7C
:102590001AD8E31E022B436809D82B43032C43604F
:1025A0001AD101222946BDE83840FFF751BF23EA7E
:1025B0000503012C4360F4D0022C0BD029460022E5
:1025C000BDE83840FFF72FBF04F0FD03012BE8D032
:1025D000052CF1D10222E5E7052CEEE70CF100080D
:1025E0004B7D2BB1082807D8044B33F810007047F7
:1025F0000C2801D8024BF8E70020704778F100085A
:102600008AF10008B0F904004FF47071FFF728BF99
:10261000F0B52E4B07681F60B5EEC00AF1EE10FA58
:1026200089B004463ED4F7EE007AB4EE670AF1EEC4
:1026300010FAC8BFB0EE670AD4ED037AF8EE677AF5
:1026400067EE807A17EE900A0AF064F8204B0022B9
:1026500009F002FF0AF066FB6023227D019300234C
:10266000CDE90533039304930793531E032BA66808
:102670002061B0FBF6F6029622D86FF0030505EB59
:10268000820521462846FFF7ABFF3B6A30EA030389
:102690000BD00E482A4601A901F07AF950B10D4835
:1026A000FEF7B8FF9FED0C0AC6E707F13403AA1046
:1026B00043F82260637D054829461BB101F00CFAFE
:1026C00009B0F0BD01F0E8F9FAE700BF500A0020B8
:1026D0000000E03F4CF1000800000000C3689BB11F
:1026E00090ED047A07EE903AB8EE477AF8EE677A02
:1026F00087EE270AF7EE007AB4EE670AF1EE10FAD9
:10270000C8BFB0EE670A70479FED010A704700BF6F
:10271000000000002DE9F0412DED028B474C0268CE
:10272000226086B000230E4600930546FFF7D6FFD1
:10273000116A41F211131942B0EE408A08D1116AB0
:1027400040F24443194202BF136823F001031360AF
:1027500001A8694600F0DEFF2868394B0022D1B29B
:10276000013253F831708742F9D110B93548FEF77C
:1027700051FF03EBC1031B79002B3CD100F0AAFFF2
:10278000DDF810C000900099012301FA03F0AB605E
:102790002D4BB0FBF3F0B1FBF3F1BCF1000F30D1E6
:1027A0004A1E771E6260E7603B464FF000084FF616
:1027B000FE7EB3F5803F26D2B2F5803F23D2B8F13A
:1027C000000F01D06260E36000231C482361A36016
:1027D00001F098F850BBEE60B0EE480A2846FFF7CB
:1027E00017FF2268136843F00103136006B0BDECC5
:1027F000028BBDE8F08100F07DFFDDF814C0009091
:10280000C1E7421ECDE7AB685B00AB60BCF1000FD7
:102810000ED101FB03F2B7FBF3F3734502F1FF3274
:1028200009D8B2F5803F06D36260E36007489EE7AF
:1028300000FB03F2EFE74FF00108BAE7500A00206F
:10284000A4F1000863F1000840420F004CF10008B9
:1028500030B50D4604464E4989B02846FFF752F878
:102860004B4920602846FFF76DF8C0F38433494A8E
:1028700023752368C0F3C040934260754FF0000297
:102880001AD10092444A516C41F001015164526CDA
:1028900002F001020092009A404A93424CD1002378
:1028A00005933D4B5A6C42F480325A645B6C03F4DE
:1028B00080330593059B16E0B3F1804F25D038494E
:1028C0008B422ED037498B4246D037498B42E3D1D9
:1028D000314B04921A6C42F008021A641B6C03F02C
:1028E00008030493049B2A492846FEF7C7FF0023E8
:1028F000C4E9033344F6206101232046A580A36088
:1029000009B0BDE83040FFF705BF0192224A116CC3
:1029100041F001011164126C02F001020192019A6E
:10292000BAE702921C4A116C41F002011164126C68
:1029300002F002020292029A1C4A934217D100232B
:102940000693154B5A6C42F400325A645B6C03F4E4
:1029500000330693069BC6E703920F4A116C41F0C1
:1029600004011164126C02F004020392039A104AEB
:102970009342B8D100230793074B5A6C42F480224C
:102980005A645B6C03F480230793079BABE700BF9B
:10299000A0E900080000014000380240004001406A
:1029A0000004004000080040000C004000440140CA
:1029B00000480140DFED047A20EE270AFDEEC07AE0
:1029C00017EE901AFFF7A6BE002474494368094A1F
:1029D0009B0182B0D3581A68120706D500220192D3
:1029E0001A6801925A680192019A1868C0F340105F
:1029F00002B07047AC2800204368034A9B01D358BB
:102A00001868C0F3C0107047AC2800200346406827
:102A1000134A810110B41C688C5002EB80109A6834
:102A20004260DA6882601A69C2605A6902611A6A91
:102A300082610022C284C2618284C2858285B3F928
:102A40001A20013205D108235DF8044B436101F0DF
:102A50005AB9B3F9183001330CBF04230C23F3E740
:102A6000AC2800208160FFF7D1BF0000094B9842DD
:102A70000BD0A3F54C43984209D003F5504398423C
:102A800014BF4FF0FF300220704700207047012034
:102A9000704700BF00100140F0B50E4685B04149B7
:102AA000044630461546FEF72DFF3F4907462846A7
:102AB000FEF728FF01463846FEF702FF022E20608F
:102AC0000AD0032D08D037490220FEF71BFFB84279
:102AD00044D13648FEF79EFD0127354B20689842C9
:102AE0004FF000033CD10193324B5A6C42F010027C
:102AF0005A645B6C03F010030193019BFFF7B6FF70
:102B0000284960603046FEF7B9FE28462649FEF7A0
:102B1000B5FE701C03D001213046FFF71DFD691C76
:102B200003D001212846FFF717FD00234FF416526A
:102B3000C4E90223C4E90433236226836583204663
:102B4000FFF764FF5FB31C4B1C4801221A6021464B
:102B50004C2205B0BDE8F0400BF0A2BB0027BCE75B
:102B6000174A90420FD002F550429042C6D10393CB
:102B7000104B5A6C42F020025A645B6C03F0200345
:102B80000393039BBAE702930A4B1A6C42F4003298
:102B90001A641B6C03F400330293029BAEE705B08A
:102BA000F0BD00BF74EB00082CEB0008ECF100084E
:102BB00000100140003802408C0A002060280020EC
:102BC00000440040F7B5FFF751FF041E26DB144F09
:102BD00057F8240010B3134DA601AB591A6812061A
:102BE00006D5DB68190603D50F4B01211B689847F2
:102BF000AB591A68920608D5DB68980605D50A4BCA
:102C000057F824001B6800219847AB591A68110730
:102C100004D55A69D20744BF5B68019303B0F0BD85
:102C2000940A0020AC280020900A00200148FFF7F9
:102C3000C9BF00BF001401400148FFF7C3BF00BF78
:102C4000004400400148FFF7BDBF00BF0010014035
:102C5000002808DB0123420900F01F0003FA00F0FE
:102C6000014B43F82200704700E100E000280DDB33
:102C70004309012200F01F0002FA00F02033044A49
:102C800042F82300BFF34F8FBFF36F8F704700BF31
:102C900000E100E0034B19604168034B43F8212039
:102CA000704700BF900A0020940A0020D0E900037A
:102CB00030B4204CA0421BD004F58064A0421DD04B
:102CC000A4F55044A04216D0002420461A4D9B0182
:102CD000EB58CAB1DA68A1B942F02002DA60174BAA
:102CE00000F110029B6843F8224030BCFFF7B0BFF0
:102CF000134C2520EAE7134C2620E7E7124C472027
:102D0000E4E742F08002E9E7DA6849B922F02002FC
:102D1000DA60DB6813F0800F09D130BCFFF7A6BF83
:102D200022F08002DA60DB6813F0200FF4E730BC99
:102D3000704700BF00100140AC28002000ED00E00B
:102D4000452C0008392C00082D2C000838B54568A2
:102D500004462046FFF73AFE0028FAD0AD01034BA7
:102D60005B595868C0F3080038BD00BFAC2800208C
:102D700070B5466805460C462846FFF73DFE00281C
:102D8000FAD0034BB601C4F308049B595C6070BDD4
:102D9000AC280020DFF830D0002103E00B4B5B585B
:102DA000435004310A480B4B42189A42F6D30A4A60
:102DB00002E0002342F8043B084B9A42F9D300F0AA
:102DC000E5FFFDF731FA70470080012058F4000854
:102DD000980100202807002028070020B82900209B
:102DE000FEE7704708B50B4B1A6842F400721A6090
:102DF0001A6842F480621A601A6842F480721A609B
:102E0000032000F009FA0F20FEF7B4FAFFF7E9FFFC
:102E1000002008BD003C024038B50446FEF7B0FA79
:102E2000631C1CBF054B1B78054618BFE418FEF752
:102E3000A7FA431BA342FAD338BD00BFA402002067
:102E40007047000010B50446002800F09980036C1C
:102E500023B9436480F83C30FFF7F2FF236CDB06B4
:102E600000F18C80236C23F4885323F0020343F099
:102E700002032364434B5A6822F440325A605A6872
:102E800061680A435A60236821695A6822F4807293
:102E90005A605A6842EA01225A605A68A16822F0D0
:102EA00040725A605A680A435A609A68E16822F48C
:102EB00000629A609A680A439A603349A26A8A4219
:102EC00050D0996821F07061996099680A439A60BE
:102ED0009A68E16A22F040529A609A680A439A60BE
:102EE0009A68A16922F002029A609A6842EA410255
:102EF0009A60226A002A3DD05A68616A42F40062F0
:102F00005A605A6822F460425A605A68013942EAAB
:102F100041325A60DA6AE16922F47002DA62DA6AEE
:102F2000013942EA0152DA629A68216B22F4007296
:102F30009A609A6842EA41229A609A68616922F42A
:102F400080629A609A68002042EA81229A606064F6
:102F5000236C23F0030343F001032364002384F86C
:102F60003C3010BD9A6822F070629A609A6822F034
:102F70004052B4E75A6822F40062CAE70120EDE744
:102F80000120EEE7002301400100000F82B0002382
:102F9000019390F83C30012B4ED0012380F83C3057
:102FA00003689A68D10705D59A68D20714D400201F
:102FB00002B070479A68214942F001029A60204AA3
:102FC0001268B2FBF1F202EB42020192019A002A6E
:102FD000EAD0019A013AF8E7026C22F4E06222F0AA
:102FE000010242F4807202645A68510541BF026CCA
:102FF00022F4405242F480520264026C12F4805275
:103000001CBF426C22F006024264002280F83C2081
:103010006FF022021A600B4A5268D20608D19868F3
:1030200010F04050C3D19A6842F080429A60BFE7E6
:10303000054A9342BBD1F2E70220B9E740420F00B4
:10304000A8020020002301400020014003689A6884
:1030500070B5560504460D460BD59B68D80508D5B6
:10306000236C43F020032364002384F83C300120C8
:1030700070BDFEF785F9064623681A6892070CD5DD
:103080006FF012021A60226C42F4007222649A6895
:1030900012F0405F13D00020EAE7691CEDD045B97B
:1030A000236C43F004032364002384F83C300320A2
:1030B000DEE7FEF765F9801BA842DDD9F0E7A269DB
:1030C000002AE8D1DA6A12F4700F02D09B685B051F
:1030D000E1D4236C23F480732364206C10F48050BB
:1030E000D9D1236C43F001032364C1E70368D86C92
:1030F00070470000F7B50023019390F83C30012B96
:1031000066D0012380F83C300D6803688E68092D75
:10311000ACB231D904EB4402DF681E3A4FF0070C21
:103120000CFA02FC27EA0C07DF60DF6806FA02F2FD
:103130003A43DA604968062901EB81022CD8596BC1
:10314000053A1F26964021EA06015963596B04FA95
:1031500002F20A435A632C4A934207D1122D39D105
:10316000D2F8043343F48003C2F80433002380F818
:103170003C30184603B0F0BD1F6905EB45024FF027
:10318000070C0CFA02FC27EA0C071F611F6906FAFC
:1031900002F23A431A61CDE70C294FF01F010BD818
:1031A0001E6B233A914026EA01011963196B04FA58
:1031B00002F20A431A63CEE7DE6A413A914026EAF8
:1031C0000101D962D96A04FA02F20A43DA62C2E75B
:1031D0000220CFE7A5F11003012BC7D80B4A536893
:1031E000102D43F400035360C0D1094B094A1B68FA
:1031F000B3FBF2F20A2353430193019B002BB5D09A
:10320000019B013BF8E700BF002001400023014083
:10321000A802002040420F000749CA6822F4E06279
:103220000302120403F4E063120C134343F0BF6380
:1032300043F40033CB60704700ED00E02DE9F3412B
:10324000044618B9012002B0BDE8F0810368DD072B
:1032500010D4236898075BD423681A0700F19D8077
:1032600023685B0700F1BB80A269002A40F01C8143
:103270000020E8E7A54B9A6802F00C02042A07D068
:103280009A6802F00C02082A0AD15A68510207D53E
:103290009E4B1B689A03DCD56368002BD9D1D1E71C
:1032A0006268B2F5803F11D11A6842F480321A6028
:1032B000FEF766F8954E054633689B03C9D4FEF7C2
:1032C0005FF8401B6428F7D90320BCE78F4DB2F5A7
:1032D000A02F2B6807D143F480232B602B6843F485
:1032E00080332B60E4E723F480332B602B6823F4D6
:1032F00080232B60002ADBD1FEF742F806462B68BC
:103300009F03A6D5FEF73CF8801B6428F7D9DBE7BE
:103310007E4B9A6812F00C0F07D09A6802F00C02EC
:10332000082A11D15B685E020ED4784B1A689507A3
:1033300002D5E268012A85D11A68216922F0F802D3
:1033400042EAC1021A6087E7E268714BB2B101221A
:103350001A60FEF715F86D4D06462B68980707D5DD
:103360002B68226923F0F80343EAC2032B6073E75A
:10337000FEF706F8801B0228EFD9A5E71A60FDF7D3
:10338000FFFF624E0546336899077FF565AFFDF78D
:10339000F7FF401B0228F6D996E762695D4B7AB1C8
:1033A00001221A60FDF7ECFF584E0546736F9F0728
:1033B0003FF556AFFDF7E4FF401B0228F6D983E73F
:1033C0001A60FDF7DDFF514E0546736F98077FF5D4
:1033D00047AFFDF7D5FF401B0228F6D974E74B4BEA
:1033E0001A6C12F0805228D101921A6C42F080526D
:1033F0001A641B6C03F080530193019B0127464D17
:103400002B68D9051BD5A368404D012B27D12B6F05
:1034100043F001032B67FDF7B3FF3C4E054641F235
:103420008838336F9B0739D5002F3FF41DAF374ADB
:10343000136C23F08053136416E70027DFE72B6833
:1034400043F480732B60FDF79BFF06462B68DA057B
:10345000D9D4FDF795FF801B0228F7D934E7052B57
:1034600004D12B6F43F004032B67D0E72A6F22F0BF
:1034700001022A672A6F22F004022A67002BCAD1B0
:10348000FDF77EFF41F2883806462B6F9807CBD5B3
:10349000FDF776FF801B4045F7D915E7FDF770FF74
:1034A000401B4045BDD90FE7184DAB6803F00C0336
:1034B000082B3FF4C7AE194E0023022A336035D1E2
:1034C000FDF75EFF07462B68990129D4D4E907323E
:1034D0001343626A43EA8213E26A43EA0263A26A1E
:1034E0005208013A43EA02436B6001233360FDF75F
:1034F00047FF064D04462B689A013FF5B9AEFDF72C
:103500003FFF001B0228F6D9DEE600BF003802406C
:1035100000004742800E4742007000406000474272
:10352000FDF72EFFC01B0228CDD9CDE6FDF728FF01
:1035300004462B689B017FF59BAEFDF721FF001B26
:103540000228F6D9C0E600BF134908B58B6803F01E
:103550000C03042B1CD0082B1CD14A684B6849680B
:1035600013F4800314BF0D480D48C1F3881118BF30
:10357000002302F03F02A1FB000109F043FC064BCF
:103580005B68C3F3014301335B00B0FBF3F008BD9C
:103590000248FCE70248FAE70038024000127A00CD
:1035A0000024F4002DE9F0410D46044610B9012035
:1035B000BDE8F081434B1A6802F00F028A4227D31C
:1035C000226897072CD4D00740D43E4B1A6802F0EB
:1035D0000F02AA4265D8226851076BD4130707D59A
:1035E000394A2169936823F4604343EAC103936035
:1035F000FFF7AAFF344B354A9B68C3F30313D35C30
:10360000D840334B18600F20FDF7B4FE0020CFE701
:10361000CAB21A701B6803F00F038B42C7D1CFE701
:10362000294B12F0040F1EBF996841F4E0519960D4
:10363000160742BF996841F4604199602249A06829
:103640008B6823F0F00303438B60BCE762681E4B7A
:10365000012A1CD11B6813F4003FA8D01A4EB3688E
:1036600023F003031343B360FDF78AFE41F2883869
:103670000746B368626803F00C03B3EB820FA4D073
:10368000FDF77EFEC01B4045F3D9032090E7911E55
:1036900001291B6802D813F0007FDEE713F0020F48
:1036A000DBE7EAB21A701B6803F00F03AB427FF44A
:1036B0007EAF90E70449E0688B6823F4E05303434E
:1036C0008B608BE7003C02400038024035F2000876
:1036D000A8020020044B054A9B68C3F38223D35CF5
:1036E000034A1068D84070470038024045F200088D
:1036F000A8020020044B054A9B68C3F34233D35C05
:10370000034A1068D84070470038024045F200086C
:10371000A80200200F2303600B4B9A6802F00302FB
:1037200042609A6802F0F00282609A6802F4E05205
:10373000C2609B68DB0803F4E0530361034B1B6822
:1037400003F00F030B60704700380240003C02405A
:10375000036A23F001030362036A70B54468826957
:103760000D6822F073022A438D6823F002032B4375
:103770000A4DA8420BD1CD6823F008032B43D1E9B1
:10378000055624F44074354323F004032C4344606D
:1037900082614A684263036270BD00BF000001405D
:1037A000036A23F480730362036A70B54468C269D4
:1037B0000D6822F073022A438D6823F4007343EAF4
:1037C00005230B4DA8420DD1CD6823F4006343EAD5
:1037D0000523D1E9055624F44054354323F480638E
:1037E00044EA05144460C2614A68C263036270BD62
:1037F00000000140036A23F480530362036A30B57A
:103800004468C2690D6822F4E64242EA05228D68E6
:1038100023F4005343EA0533064DA84202BF4D6925
:1038200024F4804444EA85144460C2614A68026416
:10383000036230BD0000014070477047224A0368B0
:1038400090420ED0B0F1804F0BD0A2F57C42904256
:1038500007D002F58062904203D002F58062904268
:1038600015D14A6823F070031343174A904219D0C8
:10387000B0F1804F16D0A2F57C42904212D002F5F2
:10388000806290420ED002F5806290420AD00F4AC8
:10389000904207D002F58062904203D002F5806228
:1038A000904203D1CA6823F44073134303608B68CA
:1038B000C3620B688362044B984204BF0B690363C5
:1038C00001234361704700BF0000014000400140F8
:1038D00010B50446A0B190F8393003F0FF021BB9CF
:1038E00080F83820FFF7A8FF0223206884F83930D9
:1038F000211DFFF7A3FF012384F83930002010BDFC
:103900000120FCE710B50446A0B190F8393003F06F
:10391000FF021BB980F83820FFF78FFF02232068D1
:1039200084F83930211DFFF789FF012384F83930ED
:10393000002010BD0120FCE7036A23F0100303629E
:10394000036A70B5446882690D6822F4E64242EA6F
:1039500005228D6823F0200343EA05130B4DA8428E
:103960000DD1CD6823F0800343EA0513D1E9055654
:1039700024F44064354323F0400344EA8504446062
:1039800082614A688263036270BD00BF000001402B
:1039900038B590F83830012B04464FF0020010D0B3
:1039A0000123082A84F8383084F839003FD009D838
:1039B000DAB1042A2AD00123002084F8393084F8AF
:1039C000380038BD0C2AF6D12068FFF713FF2368B2
:1039D0000969DA6942F40062DA61DA6922F4806224
:1039E000DA61DA6942EA012230E02068FFF7B0FECE
:1039F000236809699A6942F008029A619A6922F07B
:103A000004029A619A690A439A61D4E72068FFF731
:103A100093FF236809699A6942F400629A619A697E
:103A200022F480629A619A6942EA0122ECE72068F6
:103A3000FFF7B6FE23680969DA6942F00802DA6125
:103A4000DA6922F00402DA61DA690A43DA61B2E77C
:103A5000036A10B501248C4023EA04030362036A5D
:103A600002FA01F10B43036210BD000010B50446D9
:103A700001220068FFF7ECFF2368064A934202BF69
:103A80005A6C42F400425A641A6842F001021A6009
:103A9000002010BD00000140FFF7E8BF036A10B529
:103AA00004248C4023EA04030362036A02FA01F14E
:103AB0000B43036210BD10B5044604220068FFF7F3
:103AC000EDFF23685A6C42F400425A641A6842F0CF
:103AD00001021A60002010BDFFF7EDBF2DE9F84389
:103AE0000368C1681A69044622F440520A431A6105
:103AF0002569A268D968C0692A43656921F416411D
:103B00002A4321F00C0102430A43DA605A69A16991
:103B100022F440720A43B0F5004F5A61774A79D1D6
:103B2000934203D002F58062934243D1FFF7E2FD56
:103B3000636819254FF0640868435B00B0FBF3F33A
:103B4000B3FBF8F31F01FFF7D5FD636868435B0023
:103B5000B0FBF3F6FFF7CEFD636868435B00B0FB94
:103B6000F3F3B3FBF8F308FB1363DB003233B3FB6F
:103B7000F8F35B0003F4F876FFF7BCFD6268684376
:103B80005200B0FBF2F9FFF7B5FD636822686843A5
:103B90005B00B0FBF3F3B3FBF8F308FB1393DB001C
:103BA0003233B3FBF8F303F007033B443344936031
:103BB000BDE8F883FFF78EFD636819254FF06408B0
:103BC00068435B00B0FBF3F3B3FBF8F31F01FFF7AF
:103BD00081FD636868435B00B0FBF3F6FFF77AFD95
:103BE000636868435B00B0FBF3F3B3FBF8F308FBD7
:103BF0001363DB003233B3FBF8F35B0003F4F876B6
:103C0000FFF768FD626868435200B0FBF2F9FFF706
:103C100061FDBAE7934202D0394A93423FD1FFF7A0
:103C200069FD636819254FF0640868439B00B0FB89
:103C3000F3F3B3FBF8F31E01FFF75CFD6368684321
:103C40009B00B0FBF3F7FFF755FD636868439B00EB
:103C5000B0FBF3F3B3FBF8F308FB13731B01323330
:103C6000B3FBF8F303F0F007FFF744FD6268684325
:103C70009200B0FBF2F9FFF73DFD636822686843EC
:103C80009B00B0FBF3F3B3FBF8F308FB13931B01AA
:103C90003233B3FBF8F303F00F033B4386E7FFF740
:103CA00019FD636819254FF0640868439B00B0FB59
:103CB000F3F3B3FBF8F31E01FFF70CFD63686843F1
:103CC0009B00B0FBF3F7FFF705FD636868439B00BB
:103CD000B0FBF3F3B3FBF8F308FB13731B013233B0
:103CE000B3FBF8F303F0F007FFF7F4FC62686843F6
:103CF0009200B0FBF2F9FFF7EDFCBEE700100140C7
:103D000000140140704710B5044640B390F83930B4
:103D100003F0FF021BB980F83820FFF7F3FF226899
:103D2000242384F83930D36823F40053D360204629
:103D3000FFF7D4FE23681A6922F490421A615A6987
:103D400022F02A025A61DA6842F40052DA60002056
:103D50002023E06384F8393084F83A3010BD012024
:103D6000FCE77FB502210F23CDE901314FF48052EA
:103D7000002301A8CDE903320593FFF713FCB0FA45
:103D800080F0400907B05DF804FB00000F49D1F84E
:103D9000883043F47003C1F888300D4B1A68002056
:103DA00042F001021A6098601A6822F0847222F4CC
:103DB00080321A60074A5A601A6822F480221A6018
:103DC000D8604FF000638B60704700BF00ED00E0EB
:103DD000003802401030002410B58EB01D4B002476
:103DE00000941A6C42F080521A641B6C1A4A03F059
:103DF00080530093009B0194136823F4404343F4E1
:103E000000431360136803F440430193A042019BF5
:103E10004FF0010302930CBF4FF480334FF4A02303
:103E2000039302224FF48003CDE9082308214FF4C5
:103E3000A8730420CDE90A130723CDE90C0302A8D7
:103E4000FFF7FCF918B9FFF78CFF0EB010BD204644
:103E5000FBE700BF003802400070004010B58EB094
:103E600000241A4B00941A6C42F080521A641B6CA6
:103E7000174A03F080530093009B0194136823F4C6
:103E8000404343F4004313601368039403F4404336
:103E90000193019B032302930123059310230693AF
:103EA0000A934FF4A8710423CDE90B1302220723D0
:103EB00002A8CDE908240D93FFF7C0F918B9FFF760
:103EC00050FF0EB010BD2046FBE700BF0038024097
:103ED0000070004008B50120FFF77EFF28B9FFF70A
:103EE000BDFF10B90148FDF795FB08BD21F20008A0
:103EF000174A1849936803F00C03042B10B50DD032
:103F0000082B0DD0144B0B60114B144A9B68C3F364
:103F10000313D25C0B68D3400B6010BD104BF2E76B
:103F20005468506852686302C2F388124CBF0C4B4D
:103F3000094B00F03F00B3FBF0F35343044A5268CF
:103F4000C2F3014201325200B3FBF2F3DBE700BFE0
:103F500000380240A80200200024F40035F20008D6
:103F600000127A00074B084A13601A69910707D5B7
:103F7000DA68920704D56FF002021A61FEF72ABAD6
:103F8000704700BF000C00407029002000487047B7
:103F900050F2000830B589B001A903A8FFF7BAFBB9
:103FA000FFF798FB002302931E4B01901A6C1E4CE6
:103FB00042F008021A641A6C02F008020292029A95
:103FC0001A6A42F008021A621A6A22F008021A6299
:103FD000069AA3F50B3323604FF0FF33E360134BD6
:103FE000F2B9B0FBF3F00138002560600E4825619E
:103FF000A5606561FFF76CFC0D4B0E4A9B68C3F82A
:1040000008210D4B4FF480225A6007482946FFF7DC
:104010002DFD2268D36823F00203D36009B030BDC0
:104020004000DEE7003802407029002040420F00C7
:1040300000ED00E0653F000800E100E00448026890
:10404000D36823F00203D3600021FFF70FBD00BF48
:1040500070290020014B586A704700BF000C0040D7
:10406000054B1B686FF0020258631A61DA6842F070
:104070000202DA60704700BF70290020064B1B68FF
:104080006FF002021A615A6942F002025A61DA685C
:1040900042F00202DA60704770290020034B1A6870
:1040A000D36823F00203D360704700BF702900205B
:1040B000024B1B686FF002021A61704770290020E2
:1040C00082B001900091009B002B05D0019B9B6862
:1040D000019A12681A6005E0019B1A68019BDB686F
:1040E00012041A6000BF02B0704700B583B001909F
:1040F0000B46ADF80230019B1A4600231360536053
:104100009360D360136153619361019BBDF90220F9
:1041100011461846FDF789FB019B184603B05DF870
:1041200004FB00B583B001900B46ADF80230019B53
:104130001A460023136053609360D3601361536188
:104140009361019BBDF9022011461846FDF782FBE1
:10415000019B184603B05DF804FB00B583B00190E5
:104160000091019B00991846FFF7AAFF00BF03B01A
:104170005DF804FB10B584B001900B468DF8033058
:10418000002303935849019A13465B0013449B0094
:104190000B4408331B78002B5BD19DF80330002BB8
:1041A00025D11C20FDF706FE03461C464E49019A08
:1041B00013465B0013449B000B44B3F900301946CF
:1041C0002046FFF792FF4849019A13465B001344CB
:1041D0009B000B4404331C604349019A13465B0067
:1041E00013449B000B44083301221A7028E09DF809
:1041F0000330012B24D11C20FDF7DCFD03461C46B7
:104200003949019A13465B0013449B000B44B3F9F0
:10421000003019462046FFF784FF3349019A1346C0
:104220005B0013449B000B4404331C602E49019A2D
:1042300013465B0013449B000B44083302221A70A0
:10424000019A13465B0013449B00274A13440393CF
:1042500045E02549019A13465B0013449B000B443B
:1042600008331B78012B0CD19DF80330002B08D1AB
:10427000019A13465B0013449B001B4A13440393AB
:104280002DE01949019A13465B0013449B000B442F
:1042900008331B78022B0CD19DF80330012B08D179
:1042A000019A13465B0013449B000F4A1344039387
:1042B00015E00D49019A13465B0013449B000B4423
:1042C00008331B780A2B08D1019A13465B0013446C
:1042D0009B00054A1344039301E000230393039BCF
:1042E000184604B010BD00BF9803002000B585B08B
:1042F00001900B468DF80330019B0393019B002B2B
:1043000007D0039B5B689DF8032011461846FFF712
:1043100024FF00BF05B05DF804FB00B585B0019037
:10432000019B0393039B1B7A022B0BD1039B5B68BE
:10433000002B03D01C211846FDF750FD039B0022E3
:104340001A720EE0039B1B7A012B0AD1039B5B6858
:10435000002B03D01C211846FDF740FD039B0022D3
:104360001A7200BF05B05DF804FB00B583B0019080
:104370000B46ADF80230019BBDF9022011461846EC
:10438000FCF7D6F9019B184603B05DF804FB00B5B5
:1043900083B00190019B1846FEF734F9019B184643
:1043A000FCF70CFA019B184603B05DF804FB000013
:1043B00010B588B005908DED020B8DED001B4649C0
:1043C000059A13465B0013449B000B4408331B788B
:1043D000002B67D11C20FDF7EDFC03461C463E492F
:1043E000059A13465B0013449B000B44B3F900305D
:1043F00019462046FFF7B9FF3749059A13465B0077
:1044000013449B000B4404331C603349059A134644
:104410005B0013449B000B4404331B681C46DDE91E
:1044200002234FF000002D4908F0F6FA02460B4631
:104430001046194608F096FC034600EE103A204656
:10444000FCF787F92449059A13465B0013449B0047
:104450000B4404331B681C464FF00002204BDDE97F
:10446000000108F0D9FA02460B461046194608F03A
:1044700079FC034600EE103A2046FCF783F9164912
:10448000059A13465B0013449B000B440833042237
:104490001A70059A13465B0013449B000E4A13449E
:1044A000079315E00C49059A13465B0013449B00E3
:1044B0000B4408331B78042B08D1059A13465B0084
:1044C00013449B00044A1344079301E0002307931D
:1044D000079B184608B010BD980300200000F03F6D
:1044E0000000594082B0019000BF02B07047000048
:1044F00010B586B003908DED000B039B0593059BD3
:10450000002B19D0059B1B7A042B15D1059B5B68EA
:104510001C464FF000020A4BDDE9000108F07CFA6E
:1045200002460B461046194608F01CFC034600EEF6
:10453000103A2046FCF726F900BF06B010BD00BFB8
:104540000000594010B584B00190019B0393039B78
:10455000002B14D0039B1B7A042B10D1039B5C68A7
:10456000002C06D02046FFF712FF1C212046FDF745
:1045700035FC039B00221A72039B00225A6000BF85
:1045800004B010BD82B0019000BF02B0704782B08D
:1045900001900091009B184602B07047044B5B6A83
:1045A0009AB2044B1A80044B01221A8000BF704754
:1045B00000000140A00A0020A20A002000B585B03A
:1045C000314B1B6B304A43F0010313632F4B1B68C5
:1045D0002E4A43F4202313602C4B5B682B4A43F490
:1045E00040735360294B9B68284A43F470239360BF
:1045F000264BDB68254A43F4A023D360234B234A90
:104600001B6A1362214B5B6A204A43F01103536219
:104610001D4B5B6C1C4A43F0010353641C4B03228B
:104620009A601B4B40F201129A61194B0022DA6129
:10463000174B11221A62164B00229A62144B4FF04C
:10464000FF32DA62124B00225A62114B01221A60C9
:104650006B4610491846FCF759F86B4619460E4848
:10466000FCF718F86B461846FBF76EFE01210A4866
:10467000FBF7CEFF094B00221A80094B00221A805B
:1046800000BF05B05DF804FB0038024000000240A6
:10469000000001409D450008A40A0020A00A002057
:1046A000A20A00200A4B1B889BB2012B0CBF0123DE
:1046B0000023DBB2002B05D0064B00225A62044BCC
:1046C00000221A80034B5B6A9BB21846704700BFFA
:1046D000AC0200200000014082B00190054B1B8815
:1046E0009AB2019B1A80044B1B889BB2184602B0F9
:1046F000704700BFA00A0020A20A002000B585B0C4
:104700000A4B00221A606B4600211846FBF7FEFF99
:104710006B4619460648FBF7BDFF6B461846FBF78C
:1047200013FE00BF05B05DF804FB00BF00000140B0
:10473000A40A002000B583B001900091019B012BD9
:104740000DD1009B4FF6FF72934208D1132106480A
:10475000FBF734FF054A06490348FDF7B3F900BFEC
:1047600003B05DF804FB00BFA40A002098010020FC
:104770002D06000808B54FF6FF710120FFF7DAFF9C
:1047800008BD000010B584B001902949019A134674
:104790005B0013449B000B4408331B78002B2DD186
:1047A0005020FDF707FB03461C462149019A13469A
:1047B0005B0013449B000B44B3F9003019462046BC
:1047C000FBF7A0FD1A49019A13465B0013449B00B6
:1047D0000B4404331C601649019A13465B001344D2
:1047E0009B000B44083303221A70019A13465B00A6
:1047F00013449B000E4A1344039315E00C49019A9D
:1048000013465B0013449B000B4408331B78032BB7
:1048100008D1019A13465B0013449B00044A1344D9
:10482000039301E000230393039B184604B010BDDB
:104830009803002084B003900B4601928DF80B3052
:1048400000BF04B0704700B589B0039002911346D1
:104850008DF80730039B0593059B002B0ED0059B1D
:104860005B681846FBF722FD10EE103A184607F079
:1048700051FF02460B46CDE9062305E04FF000024A
:104880004FF00003CDE906230299DDE90623C1E9D3
:10489000002300BF09B05DF804FB82B0019000BFA7
:1048A00002B0704782B0019000BF02B0704700B5FF
:1048B00085B00190019B0393039B002B0ED0039BBB
:1048C0005B68002B04D01A680432126818469047BF
:1048D000039B00225A60039B00221A7200BF05B09E
:1048E0005DF804FB84B00190009100238DF80F3037
:1048F0009DF90F30184604B07047000000B585B030
:104900000190009100238DF80B30019B002B02D108
:104910004FF0FF3358E0009B002B02D14FF0FF33E4
:1049200052E02B4BD3E900014FF000024FF040431F
:1049300008F0B0F90346002B06D0009BD3E9002312
:104940002349C1E9002305E0214BD3E90023009965
:10495000C1E900231E4BD3E90023019B5B681B6860
:104960001C4A1360019B5B685B681B4A1360019BD8
:104970005B689B68194A1360019B5B68DB68184A97
:104980001360184B00221A6001F0ECFD0023039322
:104990000023039307E0144A039B144942F82310B1
:1049A000039B01330393039B022BF4D901F056FAC6
:1049B00003468DF80B309DF90B30002B02D10C4BC8
:1049C00001221A709DF90B30184605B05DF804FB02
:1049D00050030020F80C0020FC0C0020000D0020EB
:1049E000040D0020080D0020F40A0020C165000815
:1049F000F60C002000B587B0019000238DF8173029
:104A00000023049300238DF80F302E4B1B78DBB26C
:104A1000002B0CBF01230023DBB28DF80E302A4B94
:104A200002221A70019B002B0BD1264B1B78DBB2A4
:104A3000002B06D1254B1B78DBB2002B01D10123C3
:104A400000E000238DF80F3017E00A20FEF7E4F9AC
:104A5000049B03F51C5310330493019BB3F1FF3FF8
:104A600005D0049A019B9A4201D9012300E000235A
:104A70008DF80F30002001F02FFA124B1B78DBB2BB
:104A8000002B08D1114B1B78DBB2002B03D19DF812
:104A90000F30002BD9D00C4B03221A709DF80F3029
:104AA000002B02D09C238DF817309DF80E30002B80
:104AB00001D001F07FFE9DF91730184607B05DF870
:104AC00004FB00BFF40C0020F60C0020F50C0020C5
:104AD00000B587B003468DED000BADF80E30002316
:104AE0008DF8173001238DF816304FF000024FF08B
:104AF0000003DDE9000108F0D7F80346002B02D0DF
:104B00004FF0FF3352E0BDF80E30FF2B02D94FF0CB
:104B1000FF334BE0274B1B78DBB2032B04D0254B34
:104B20001B78DBB2012B02D1224B04221A70BDF894
:104B30000E30022B1BD8BDF80E301F4A52F823301E
:104B4000002B14D002F0A8F903468DF815309DF81B
:104B50001530022B0BD1BDF80E30174A52F8233016
:104B6000BDF80E201046984703468DF81630BDF864
:104B70000E30ADF81230BDF80E3018469DED000B2A
:104B800001F0CEF89DF81630002B08D0BDF8123099
:104B9000184602F05BF903468DF8173004E0BDF8C3
:104BA0001230184602F0A3F99DF91730184607B0E5
:104BB0005DF804FBF60C0020F40A002000B583B079
:104BC00000238DF80730002001F086F903468DF8A8
:104BD00007309DF90730184603B05DF804FB00006C
:104BE00000B583B000238DF807300C4B06221A70F5
:104BF00001F00EFA03468DF807300C220021084818
:104C000009F046FA01F060FD044B00221A709DF98C
:104C10000730184603B05DF804FB00BFF60C002017
:104C2000F40A0020024B1B78DBB21846704700BF25
:104C3000F50C0020024B1B78DBB21846704700BF12
:104C40000C0D00200000000000B585B04FF0000200
:104C50004FF00003CDE90223414B1B785A1CD1B21F
:104C60003F4A1170002B09D03E4B01221A603C4B89
:104C70001B78013BDAB23A4B1A7067E001AB184679
:104C800000F028F962B600BF374B1B68D3E9082350
:104C9000CDE9022300F044F99DED020B0020FFF75F
:104CA00017FF72B600BF2E4B1B78013BDAB22C4BBC
:104CB0001A709DF80530002B11D02C4B5B785A1CD4
:104CC000D1B22A4A5170002B09D0264B01221A601A
:104CD000264B5B78013BDAB2244B5A7036E0234B0B
:104CE0005B78002B32D01E4B5B78002B2DD11C4BF8
:104CF0005B780133DAB21A4B5A7062B600BF1A4BB6
:104D00001B689B6B184607F0E3FC13A3D3E9002351
:104D100007F058FD02460B46CDE9022300F0F0FAF9
:104D20009DED020B0120FFF7D3FE00BF72B600BF5E
:104D30000E4B5B78013BDAB20C4B5A70084B5B7838
:104D4000013BDAB2064B5A7000E000BF05B05DF8D7
:104D500004FB00BFAFF300807B14AE47E17A743FE1
:104D6000040B0020000B002058F20008080B002064
:104D700000B585B0514B0393514B029300238DF83E
:104D80000730504B00221A704F4B00221A7001DF7F
:104D9000FEF728F806F084FEFFF7AAF84B4B1B68D5
:104DA00000221A6000210020FFF79CFD03468DF8C9
:104DB00007309DF90730002B02D09DF9073078E0CD
:104DC00000F05AFC414B1B685A68404B1B6840334B
:104DD00019461046FFF792FD03468DF807309DF9FE
:104DE0000730002B0DD14FF0FF30FFF703FEFFF728
:104DF00019FF0346002B04D0344B1B68012283F8B3
:104E000048209DED030A06F0C3FEFFF713FF03469B
:104E1000002B0CD1FFF706FF0346002B07D12B4BCD
:104E20001B6893F84830002B01D1012300E00023D8
:104E3000DAB2254B1A7062B600BF30E0FFF7BEFE53
:104E400003468DF80730FFF7F5FE0346002B0AD125
:104E5000FFF7E8FE0346002B05D11C4B1B6893F8B7
:104E60004830002B01D0012300E00023DAB2154BBB
:104E70001A70144B1B78DBB2002B0CBF01230023EC
:104E8000DBB21A46104B1A700E4B1B78DBB2002BAC
:104E900005D00F4B1B680E4A23F0010313600A4B29
:104EA0001B78DBB2002BC9D100F026FDFFF798FE7E
:104EB0000023184605B05DF804FB00BF6F1283396C
:104EC0000000A8420A0B00200B0B002058F200083B
:104ED00010E000E082B00190064B93F83D30002BCB
:104EE0000CBF01230023DAB2019B01331A7000BF0B
:104EF00002B07047300C0020084B93F83D2001327F
:104F0000D2B283F83D20054B93F83D30132B03D9E3
:104F1000024B002283F83D2000BF7047300C002078
:104F200030B583B0FFF7E8FF2D4BD3E90A232D49B5
:104F3000C1E900232B4BD3E900014FF000024FF0F1
:104F4000000307F0CFFE0346002B03D04FF0000212
:104F5000254B03E04FF000024FF000032149C1E967
:104F60000A23204BD3E900011D4BD3E90C2307F0A2
:104F7000B9FE0346002B05D0194BD3E90C23CDE92C
:104F8000002315E0174BD3E90001154BD3E90E239D
:104F900007F08AFE0346002B05D0114BD3E90E2300
:104FA000CDE9002304E00F4BD3E90023CDE9002332
:104FB000009C019B23F00045CDE900450B4B5C6E46
:104FC000084BD3E90A014FF000024FF0000307F04D
:104FD00061FE0346002B0BD04FF0000002490BE0AE
:104FE000B0020020100B00200000F03F800B0020DA
:104FF0004FF000004FF00001DDE9002307F0E2FB75
:1050000002460B4643EC172BB0EE470AF0EE670A58
:105010002046FFF76DFA9C4B5C6F9C4BD3E90A016D
:10502000DDE9002307F0CEFB02460B4643EC172BCD
:10503000B0EE470AF0EE670A2046FFF759FA924BA6
:105040005C6D934BD3E9100101231D464FF0000224
:105050004FF0000307F01EFE0346002B01D0002393
:105060001D46EBB219462046FFF740F9884BD3E9BD
:1050700000234FF00000874907F0ECF902460B4689
:1050800010461946804BD3E91E2307F09BFB0246CE
:105090000B4614461D467E4BD3E900017A4BD3E9FB
:1050A000202307F08FFB02460B462046294607F0D7
:1050B000D3F902460B467549C1E91223734BD3E974
:1050C00012237249C1E90223714BD3E916016F4BD8
:1050D000D3E9122307F076FB02460B466B49C1E980
:1050E0000423694BD3E91001694BD3E9062307F088
:1050F000D1FD0346002B05D1654BD3E90623624958
:10510000C1E91023604BDB6B1846FFF7C6FB5E4B13
:10511000DB6B072260491846FFF795FB5C4BD3E930
:1051200018015A4BD3E9142307F04CFB02460B46F7
:105130005649C1E90623554BD3E906014FF0000259
:10514000564B07F087F902460B461046194648A30E
:10515000D3E9002307F07EF902460B4610461946B4
:1051600045A3D3E9002307F057FC02460B46474905
:10517000C1E91023464BD3E902234FF00000454913
:1051800007F068F902460B46104619463E4BD3E934
:10519000222307F017FB02460B4614461D463C4BE4
:1051A000D3E90201384BD3E9242307F00BFB024675
:1051B0000B462046294607F04FF902460B46324976
:1051C000C1E92423304BD3E924233049C1E9082322
:1051D0002D4BD3E90A012E4BD3E9082307F05AFDE2
:1051E0000346002B05D12A4BD3E908232649C1E900
:1051F0000A23254B5B6A1846FFF74FFB224B5B6A7D
:10520000072227491846FFF71EFB204BD3E90E0162
:105210001BA3D3E9002307F0D5FA02460B461B492E
:10522000C1E90C23194BD3E90C01194BD3E91E2317
:1052300007F058FD0346002B06D0154BD3E91E237B
:105240001149C1E9222333E0104BD3E90C01104B83
:10525000D3E9202307F028FD0346002B22D00C4B76
:10526000D3E920230849C1E9222321E0AFF30080DC
:10527000E17A14AE47E1BA3FAE47E17A14AEC73FD8
:105280009A9999999999C93F800B0020100B002099
:10529000B00200200000F03F600B0020000004403E
:1052A000480B0020134BD3E90C231349C1E92223F7
:1052B000104BD3E910231049C1E91E230D4BD3E94C
:1052C00012230D49C1E920230C4B9A6A01329A62DC
:1052D0009B6A184607F0FCF9084BD3E90C23074CEE
:1052E00007F070FA02460B46C4E9082300BF03B07A
:1052F00030BD00BF100B0020800B0020300C0020C0
:105300002DE9F0478AB0B84BD3E90401B74BD3E994
:10531000042307F0BFFC0346002B05D1B34BD3E9B0
:105320000423B149C1E90423FFF7BCF903461A4637
:10533000AF4BA3F868200DF106031846FFF7CCF930
:10534000AB4BB3F868301A46A74BB3F8A430D31A66
:105350000593059807F0CCF902460B46904623F0DA
:105360000049A24BD3E9220199A3D3E9002307F016
:1053700029FA02460B4643EC172BB0EE470AF0EE33
:10538000670A06F011FE53EC102B01218A464046B5
:10539000494607F093FC0346002B01D100239A46AF
:1053A0005FFA8AF383F00103DBB2002B12D08E4B3D
:1053B000B3F8A4208E4BB3F868309A4205D9059B08
:1053C00003F57F43FF33059304E0059BA3F57F437B
:1053D000FF3B0593059807F08BF94FF00002854BD2
:1053E00007F0F0F902460B46904699467F4BD3E909
:1053F000220179A3D3E9002307F0E4F902460B4622
:105400004046494607F008FB02460B467849C1E989
:105410001623754BD3E92689059807F069F90246EA
:105420000B464046494607F017F802460B466E49C0
:10543000C1E926236C4BD3E9260169A3D3E90023F4
:1054400007F0C0F902460B461046194662A3D3E99D
:10545000002307F0E1FA02460B46CDE90823089C39
:10546000099B23F00045CDE902459DED020B00F0BC
:10547000F9FB0346002B05D05F4BD3E90023CDE9B0
:10548000062387E09DED020B00F0C8FB0346002BCE
:1054900005D0594BD3E90023CDE906237AE04FF03C
:1054A00000024FF00003DDE9020107F0F3FB0346C1
:1054B000002B06D04FF000024FF00003CDE9062389
:1054C00068E09FED471B9DED020B06F035FD8DED6D
:1054D000060B01231C464FF000024FF00003DDE9EC
:1054E000060107F0D7FB0346002B01D100231C4621
:1054F000E3B28DF813309DF81330002B40D138A360
:10550000D3E90023DDE9020107F086FA02460B46E3
:10551000CDE902234FF00002384BDDE9020106F02D
:105520009BFF02460B4643EC172BB0EE470AF0EE0A
:10553000670A06F0C1FD53EC102BDDE9020106F00D
:1055400089FF02460B46164623F000474FF0000243
:105550002B4BDDE9020107F035F902460B4601212C
:105560000C463046394607F0BDFB0346002B01D1FF
:1055700000231C46E3B283F00103DBB28DF8133045
:105580009DF81330002B05D04FF000024FF00003C0
:10559000CDE906239DED080B00F064FB0346002BCC
:1055A00005D0154BD3E90023CDE9082341E04FF0A6
:1055B00000024FF00003DDE9080107F075FB034628
:1055C000002B21D04FF000020E4BCDE9082330E034
:1055D00000000000009CC840000000000068C040BF
:1055E000182D4454FB211940800B0020B0020020EC
:1055F000100B002000004E40E00C00200000E03FB7
:105600000000B03C0000F0BF4FF000024FF000037C
:10561000DDE9080107F066FB0346002B03D04FF0DD
:105620000002104B03E04FF000024FF00003CDE901
:105630000823DDE90623DDE9080107F0C3F8024687
:105640000B460949C1E91823074BB3F86820074BFB
:10565000A3F8A420064B9A6B01329A6300BF0AB0EC
:10566000BDE8F0870000F03F100B0020800B002009
:10567000300C00200000000008B5082000F08AFA75
:1056800091494FF00002914BC1E910238E4988A344
:10569000D3E90023C1E90C238B4B8D4A9A608A4BD6
:1056A0008C4ADA60884B8C4A1A61874B8B4A5A6164
:1056B000854B8B4A5A608A4B8A4A1A60894B8A4AC0
:1056C0001A60884B884A5A60864B874A9A60854B95
:1056D000854ADA60834B844A1A61824B824A5A6156
:1056E000804B814A9A617F4B7F4ADA617D4B7E4ACB
:1056F0001A627C4B7C4A5A627A4B7B4A9A62794B9B
:10570000794ADA62774B784A1A63764B764A5A635B
:10571000744B754A9A636C4A6B4B5B6818329A609B
:10572000694A694B5B6808325A60674A664B5B6836
:105730002032DA606D4BD3E90A236D49C1E90023B9
:105740006A4BD3E912236B49C1E91E23674BD3E9A6
:1057500014236849C1E92023644BD3E91A2365491E
:10576000C1E92223614BD3E91C236249C1E9242307
:105770005E4BB3F898205F4BA3F8A4205B4BD3E9B2
:1057800024235C49C1E926235A4B002283F8582080
:10579000584B0122DA659FED481B9FED490B042011
:1057A000FEF706FE0346534A5366524B5B6E18469D
:1057B000FEF798FE4F4B012283F860204D4B0022EC
:1057C00083F868204B4B0122DA669FED3B1B9FED6F
:1057D0003C0B0520FEF7ECFD0346464A5367454B5C
:1057E0005B6F1846FEF77EFE424B012283F8702065
:1057F000404B002283F848203E4B0122DA6401210D
:105800000220FEF7B7FC03463A4A5365394B0122A2
:1058100083F85020374B002283F83020334BD3E9F4
:1058200006233449C1E91023324B01225A63152063
:10583000FEF7A8FF03462F4AD3632E4BDB6B0022F3
:1058400000211846FEF7F6FF2A4B012283F8382084
:10585000284B00221A76254BD3E908232549C1E9B4
:105860000A23244B0122DA611420FEF78BFF034642
:10587000204A53621F4B5B6A002200211846FEF744
:10588000D9FF1C4B012283F820201A4B00221A70EA
:10589000164BD3E904231749C1E90423154B012210
:1058A0005A60FEF78BFE134B01221A7200BF08BD2F
:1058B000FCA9F1D24D62303F0000000000004940D9
:1058C0000000000000409F40300C00200000F0BFAE
:1058D000BCD315BE059FCDF5C9A43FDC3230B04323
:1058E000800C0020940C00205CF20008B002002024
:1058F000100B0020800B002008B54C4B93F858305B
:10590000002B16D1494B012283F85820474BDB6D01
:10591000012B0ED1454B93F86030002B09D0434B3F
:105920005B6E1846FEF70EFE404B5B6E1846FEF7A8
:1059300029FE3E4B93F86830002B16D13B4B0122D9
:1059400083F86820394BDB6E012B0ED1374B93F86F
:105950007030002B09D0354B5B6F1846FEF7F2FD17
:10596000324B5B6F1846FEF70DFE304B93F8483014
:10597000002B11D12D4B012283F848202B4BDB6CDF
:10598000012B09D1294B93F85030002B04D0274B21
:105990005B6D1846FEF7C1FC244B93F83030002BAA
:1059A00016D1224B012283F83020204B5B6B012B58
:1059B0000ED11E4B93F83830002B09D01B4BDB6BFC
:1059C0001846FEF76FFF194BDB6B1846FEF76FFFAB
:1059D000164B1B7E002B15D1144B01221A76134B4C
:1059E000DB69012B0ED1114B93F82030002B09D02D
:1059F0000E4B5B6A1846FEF755FF0C4B5B6A184668
:105A0000FEF755FF094B1B78002B0CD1074B0122E9
:105A10001A70064B5B68012B05D1044B1B7A002BD7
:105A200001D0FEF76BFE00BF08BD00BF800B002059
:105A300000B587B0402303934FF000024FF00003FE
:105A4000CDE90423039B202B0BD100F01FF810EEAF
:105A5000103A184606F05EFE02460B46CDE90423D6
:105A600007E0094B019300230093DDE90023CDE912
:105A70000423DDE9042343EC172BB0EE470AF0EED4
:105A8000670A07B05DF804FB0000F07F82B04FF0BA
:105A9000FF430193019B07EE903AB0EE670A02B014
:105AA0007047000000B587B0402303934FF0000219
:105AB0004FF00003CDE90423039B202B0BD100F012
:105AC0001FF810EE103A184606F024FE02460B4668
:105AD000CDE9042307E0094B019300230093DDE99E
